:100000000C945E000C9486000C9486000C94860080
:100010000C9486000C9486000C9486000C94860048
:100020000C9486000C9486000C9486000C94860038
:100030000C9486000C9486000C9486000C94860028
:100040000C94A8030C9486000C9486000C948600F3
:100050000C9486000C9486000C9486000C94860008
:100060000C9486000C948600000000080002010039
:100070000003040700000000000000000000000072
:10008000250028002B0000000000240027002A0083
:10009000040404040404040402020202020203032E
:1000A0000303030301020408102040800102040836
:1000B00010200102040810207206CC0611241FBE75
:1000C000CFEFD8E0DEBFCDBF22E0A0EBB1E001C0B2
:1000D0001D92A231B207E1F711E0A0E0B1E0E6EA3B
:1000E000F2E102C005900D92A03BB107D9F710E0F4
:1000F000CDE5D0E004C02197FE010E944E07CC352B
:10010000D107C9F70E94F2030C9446090C94000031
:1001100090E0FC01EC55FF4F249180579F4FFC016C
:100120008491882399F090E0880F991FFC01EA5789
:10013000FF4FA591B491FC01E458FF4F8591949134
:100140008FB7F894EC91E22BEC938FBF0895FC01EC
:10015000248135816217730720F480819181009793
:1001600029F41092B90189EB91E00895860F971F49
:100170000895AF92BF92CF92DF92EF92FF920F93CA
:100180001F93CF93DF936C017B018B01040F151F2D
:10019000EB015E01AE18BF08C017D10759F0699195
:1001A000D601ED91FC910190F081E02DC6010995F9
:1001B000892B79F7C501DF91CF911F910F91FF90A6
:1001C000EF90DF90CF90BF90AF90089590E0FC014A
:1001D000E859FF4F2491FC01EC55FF4F3491FC018D
:1001E000E057FF4FE491EE23C9F0222339F023308A
:1001F00001F1A8F4213019F1223029F1F0E0EE0FDD
:10020000FF1FE458FF4FA591B4918FB7F894EC917C
:10021000611126C030953E233C938FBF089527304F
:10022000A9F02830C9F0243049F7809180008F7DF3
:1002300003C0809180008F7780938000DFCF84B5EA
:100240008F7784BDDBCF84B58F7DFBCF8091B000ED
:100250008F778093B000D2CF8091B0008F7DF9CF9F
:100260003E2BDACF3FB7F8948091B5019091B6015B
:10027000A091B701B091B80126B5A89B05C02F3F4A
:1002800019F00196A11DB11D3FBFBA2FA92F982FBC
:100290008827BC01CD01620F711D811D911D42E0B7
:1002A000660F771F881F991F4A95D1F708958F927F
:1002B0009F92AF92BF92CF92DF92EF92FF926B012B
:1002C0007C010E9432014B015C01C114D104E104A4
:1002D000F104B9F00E943201681979098A099B0971
:1002E000683E73408105910580F321E0C21AD10870
:1002F000E108F10888EE880E83E0981EA11CB11C6D
:10030000E4CFFF90EF90DF90CF90BF90AF909F90A1
:100310008F900895089590E080E00895682F8CE014
:100320000E94E60061E08DE00E94E60060E070E07F
:10033000CB010E94570160E08DE00E94E60060E082
:1003400070E0CB010C945701FC01808191810097F2
:1003500011F00C94DB0660E070E0CB010895FC0125
:1003600080819181009711F00C94F0070895EF922D
:10037000FF920F931F93CF93DF93EC017B011982C0
:1003800018821B821A821D821C82FB0101900020B0
:10039000E9F731978F01061B170BB8016F5F7F4F8D
:1003A00090E080E00E9479080097B9F099838883F3
:1003B0001B830A832C813D81232B11F4FC011082C5
:1003C0001D830C83B70188819981DF91CF911F91A3
:1003D0000F91FF90EF900C943F09888199810097CD
:1003E00011F00E94F007198218821D821C821B8264
:1003F0001A82DF91CF911F910F91FF90EF90089596
:10040000CF92DF92EF92FF920F931F93CF93DF93E0
:1004100000D0CDB7DEB78C01FC01118210821382AF
:1004200012821582148269831A82CE0101966C01B0
:10043000FC0101900020E9F731977F01E81AF90AE1
:10044000B7016F5F7F4F90E080E00E947908F8016C
:10045000009799F091838083F382E2822481358131
:10046000232B11F4FC011082F801F582E482B6011D
:10047000808191810E943F090DC080819181009708
:1004800011F00E94F007F801118210821582148287
:10049000138212820F900F90DF91CF911F910F91D5
:1004A000FF90EF90DF90CF900895CF93DF93EC0112
:1004B00060E08E810E94E60061E08E810E94E6008D
:1004C00060E08E810E94E6008BE891E00197F1F7F1
:1004D000DF91CF910895CF92DF92EF92FF920F9329
:1004E0001F93CF93DF936C017C0187E0E80EF11C32
:1004F000D0E0C0E0062F10E0B8010C2E02C07595C8
:1005000067950A94E2F76170F70181917F010E947B
:10051000E6002196C430D10579F7C601DF91CF916D
:100520001F910F91FF90EF90DF90CF900C945502A8
:10053000CF92DF92EF92FF920F931F93CF93DF93AF
:10054000EC01F62E642F8C810E94E6008D818F3F96
:1005500019F060E00E94E6000F2D10E08F8584FF07
:1005600025C06E0187E0C80ED11CF12CE12CB8012A
:100570000E2C02C0759567950A94E2F76170F6013A
:1005800081916F010E94E600FFEFEF1AFF0A88E0F9
:10059000E816F10461F7CE01DF91CF911F910F9121
:1005A000FF90EF90DF90CF900C945502B80184E05B
:1005B000759567958A95E1F7CE010E946B026F2DC4
:1005C000CE01DF91CF911F910F91FF90EF90DF90BF
:1005D000CF900C946B0240E0682F86EF91E00C9472
:1005E0009802CF93DF93823029F4909105029860AE
:1005F000909305028093090210920A0280E480938E
:100600000B0280E180930C0280E580930D028091C3
:10061000FA010E9488008091FB018F3F11F00E9437
:1006200088008091FC010E948800C6EFD1E09E0105
:10063000265F31408091050284FD0AC084E090E08D
:100640002196281739073CF48E810E948800EFCF4D
:1006500088E090E0F5CF8BE39DE00197F1F760E053
:100660008091FA010E94E60060E08091FC010E9406
:10067000E6008091FB018F3F19F060E00E94E600E8
:100680008091050284FD39C063E086EF91E00E940D
:100690006B02CBE4D6E4CE010197F1F763E086EF7D
:1006A00091E00E946B022197F1F763E086EF91E001
:1006B0000E946B0283E592E00197F1F762E086EF1A
:1006C00091E00E946B028091050280620E94EB0221
:1006D00084E0809306028CE00E94EB0281E00E949D
:1006E000EB028BE39FE10197F1F782E08093070231
:1006F00086E0DF91CF910C94EB0280620E94EB02C6
:100700008BE496E40197F1F78091050280620E94E4
:10071000EB0283E592E00197F1F780910502806298
:100720000E94EB02D0CF90910902691710F06FEF91
:10073000690FE62FF0E0EA50FE4F9489890F806838
:100740000C94EB0241E00E94980281E090E0089551
:100750001F920F920FB60F9211242F933F938F93F6
:100760009F93AF93BF938091B1019091B201A091FB
:10077000B301B091B4013091B00123E0230F2D37C4
:1007800058F50196A11DB11D2093B0018093B101D0
:100790009093B201A093B301B093B4018091B501DD
:1007A0009091B601A091B701B091B8010196A11D39
:1007B000B11D8093B5019093B601A093B701B0939A
:1007C000B801BF91AF919F918F913F912F910F9061
:1007D0000FBE0F901F90189526E8230F0296A11DBB
:1007E000B11DD2CFCF93DF9300D000D000D0CDB7D2
:1007F000DEB7789484B5826084BD84B5816084BDA1
:1008000085B5826085BD85B5816085BD80916E00AE
:10081000816080936E0010928100809181008260DF
:10082000809381008091810081608093810080911C
:1008300080008160809380008091B100846080930B
:10084000B1008091B00081608093B00080917A0007
:10085000846080937A0080917A00826080937A002D
:1008600080917A00816080937A0080917A0080681C
:1008700080937A001092C1008DE00E9488008CE085
:100880000E9488008BE00E9488008AE00E94880015
:1008900089E00E94880088E00E948800F5E0CF2E61
:1008A000D12C16E0A9E0AA2EB12C44244394512C5B
:1008B00072E0872E912CE0E02E2EE0E03E2ED092CA
:1008C0000301C09202015092010140920001609028
:1008D00000017090010177FC9AC057E0E52EF12CE1
:1008E0002091020130910301129FC001139F900DCE
:1008F0001124B70186549E4F0E94A700FC0160811D
:10090000CE0101960E940002CE0101960E94A40130
:10091000CB010E948E01CE0101960E94AF01F1E051
:10092000EF1AF108E8F6169DC001179D900D1124ED
:10093000FC01E654FE4F7F0147E0642E712CB301A9
:10094000C7010E94A700FC016081CE0101960E94B0
:100950000002CE0101960E94A401CB010E948E01EB
:10096000CE0101960E94AF01F1E06F1A710838F7CD
:1009700061E08AE00E94E60060E089E00E94E60013
:1009800060E088E00E94E60082E00E94F10260E000
:1009900084E00E94930349E050E066E171E086EF55
:1009A00091E00E94B90061E085E00E94930348E075
:1009B00050E060E271E086EF91E00E94B900E090C3
:1009C0000201F090030131E0E31AF108F092030113
:1009D000E092020166EB73E080E090E00E94570134
:1009E000F7FE04C0B0920301A092020180910201BF
:1009F00090910301099709F06ACF809100019091CD
:100A000001010197909301018093000160CF9092C2
:100A10000301809202019092010180920001609096
:100A200000017090010177FC9CC037E0E32EF12CAF
:100A30002091020130910301129FC001139F900D7C
:100A40001124B70186549E4F0E94A700FC016081CB
:100A5000CE0101960E940002CE0101960E94A401DF
:100A6000CB010E948E01CE0101960E94AF01F1E000
:100A7000EF1AF108E8F6169DC001179D900D11249C
:100A8000FC01E654FE4F7F0127E0622E712CB3017A
:100A9000C7010E94A700FC016081CE0101960E945F
:100AA0000002CE0101960E94A401CB010E948E019A
:100AB000CE0101960E94AF01F1E06F1A710838F77C
:100AC00060E08AE00E94E60060E089E00E94E600C3
:100AD00061E088E00E94E60082E00E94F10260E0AE
:100AE00083E00E9493034BE050E069E271E086EFFF
:100AF00091E00E94B90061E084E00E94930348E025
:100B000050E065E371E086EF91E00E94B900E0906B
:100B10000201F090030131E0E31AF108F0920301C1
:100B2000E092020166EB73E080E090E00E945701E2
:100B3000F7FE06C089E090E09093030180930201E4
:100B40008091020190910301099709F068CF80918B
:100B500000019091010101979093010180930001A0
:100B60005ECFD0920301C092020110920101109257
:100B70000001609000017090010177FC9AC097E03D
:100B8000E92EF12C2091020130910301129FC00146
:100B9000139F900D1124B70186549E4F0E94A70009
:100BA000FC016081CE0101960E940002CE010196F7
:100BB0000E94A401CB010E948E01CE0101960E94E9
:100BC000AF01F1E0EF1AF108E8F6169DC001179D9C
:100BD000900D1124FC01E654FE4F7F0187E0682E42
:100BE000712CB301C7010E94A700FC016081CE01F6
:100BF00001960E940002CE0101960E94A401CB0141
:100C00000E948E01CE0101960E94AF01F1E06F1AA1
:100C1000710838F760E08AE00E94E60061E089E050
:100C20000E94E60060E088E00E94E60082E00E9408
:100C3000F10260E082E00E9493034CE050E06EE33A
:100C400071E086EF91E00E94B90061E083E00E94CC
:100C5000930349E050E06BE471E086EF91E00E947D
:100C6000B900E0900201F090030131E0E31AF108CD
:100C7000F0920301E092020166EB73E080E090E005
:100C80000E945701F7FE04C0B0920301A092020136
:100C90008091020190910301099709F06ACF809138
:100CA000000190910101019790930101809300014F
:100CB00060CF61E08BE00E94E60060E070E0CB0175
:100CC0000E94570160E08BE00E94E60060E070E067
:100CD000CB010E9457012114310409F4F0CD0E9488
:100CE0000000E3CDE6EFF1E0138212828EE091E0A6
:100CF000918380838CE084838FEF85838BE0868370
:100D000085E0878384E0808783E0818782E0828733
:100D10001386148615861686178681E00E94F102D6
:100D200065E571E08AEB91E00E94B7016EE571E044
:100D300080EC91E00E94B70167E671E086EC91E0FB
:100D40000E94B70160E771E08CEC91E00E94B7016E
:100D500069E771E082ED91E00E94B70162E871E01D
:100D600088ED91E00E94B7016BE871E08EED91E0B3
:100D70000E94B70164E971E084EE91E00E94B7013E
:100D80006DE971E08AEE91E00E94B70166EA71E0D8
:100D900080EF91E00C94B701CF93DF93C6EFD1E0E1
:100DA0002697CE010E94AF0181E0CA3BD807C1F768
:100DB000DF91CF9108951F93FC0199278827BC01EB
:100DC000E89411911032E9F3193010F01E30C8F395
:100DD0001B3251F01D3249F4689406C00E9402078C
:100DE000610F711D811D911D119110531A30B0F3C7
:100DF0003EF490958095709561957F4F8F4F9F4FF2
:100E00001F910895592F482F372F262F660F771FD0
:100E1000881F991F660F771F881F991F620F731F06
:100E2000841F951F660F771F881F991F08952F92A3
:100E30003F924F925F926F927F928F929F92AF926A
:100E4000BF92CF92DF92EF92FF920F931F93CF93B7
:100E5000DF93CDB7DEB7CA1BDB0B0FB6F894DEBF4E
:100E60000FBECDBF09942A88398848885F846E8474
:100E70007D848C849B84AA84B984C884DF80EE80BE
:100E8000FD800C811B81AA81B981CE0FD11D0FB6C7
:100E9000F894DEBF0FBECDBFED010895EE0FFF1F2A
:100EA0000590F491E02D09940F931F93CF93DF9356
:100EB0008230910510F482E090E0E0911002F09110
:100EC000110230E020E0B0E0A0E0309799F4211565
:100ED000310509F44AC0281B390B24303105D8F5F7
:100EE0008A819B816115710589F1FB01938382835E
:100EF000FE0111C0408151810281138148175907B9
:100F0000E0F04817590799F4109761F012960C9386
:100F1000129713961C933296CF01DF91CF911F91B8
:100F20000F9108950093100210931102F4CF211530
:100F3000310551F04217530738F0A901DB019A013E
:100F4000BD01DF01F801C1CFEF01F9CF909311028C
:100F500080931002CDCFFE01E20FF31F8193919396
:100F60002250310939832883D7CF20910E02309146
:100F70000F02232B41F42091060130910701309399
:100F80000F0220930E0220910401309105012115DA
:100F9000310541F42DB73EB7409108015091090148
:100FA000241B350BE0910E02F0910F02E217F307BC
:100FB000A0F42E1B3F0B2817390778F0AC014E5FC9
:100FC0005F4F2417350748F04E0F5F1F50930F02F5
:100FD00040930E02819391939FCFF0E0E0E09CCF8D
:100FE000CF93DF930097E9F0FC01329713821282CE
:100FF000A0911002B0911102ED0130E020E01097B5
:10100000A1F420813181820F931F20910E02309133
:101010000F022817390709F061C0F0930F02E0931F
:101020000E02DF91CF910895EA01CE17DF07E8F5B0
:101030004A815B819E0141155105B1F7E901FB83AE
:10104000EA8349915991C40FD51FEC17FD0761F44C
:10105000808191810296840F951FE901998388838D
:10106000828193819B838A83F0E0E0E012968D91E8
:101070009C9113970097B9F52D913C911197CD0153
:101080000296820F931F20910E0230910F022817B3
:10109000390739F6309751F510921102109210026B
:1010A000B0930F02A0930E02BCCFD383C2834081C2
:1010B0005181840F951FC817D90761F44E5F5F4FA8
:1010C00088819981480F591F518340838A819B8170
:1010D000938382832115310509F0B0CFF09311027B
:1010E000E09310029ECFFD01DC01C0CF138212827B
:1010F000D7CFB0E0A0E0EFE7F8E00C9419078C013F
:10110000009751F4CB010E9454078C01C801CDB760
:10111000DEB7E0E10C943507FC01E60FF71F9C01F8
:1011200022503109E217F30708F49DC0D901CD918F
:10113000DC911197C617D70798F0C530D10530F369
:10114000CE0104978617970708F3C61BD70B229783
:10115000C193D1936D937C93CF010E94F007D6CFBA
:101160005B01AC1ABD0A4C018C0E9D1EA0911002B1
:10117000B0911102512C412CF12CE12C109731F53A
:1011800080910E0290910F028815990509F05CC0BC
:101190004616570608F058C0809104019091050149
:1011A000009741F48DB79EB7409108015091090115
:1011B000841B950BE817F90708F055C0F0930F0250
:1011C000E0930E02F90171836083A0CF8D919C9111
:1011D000119712966C90129713967C901397A815FE
:1011E000B90559F56C0142E0C40ED11CCA14DB04E8
:1011F00020F1AC014A195B09DA011296159780F0CB
:101200006282738251834083D9016D937C93E11490
:10121000F10471F0D7011396FC93EE93129776CFF9
:1012200022968C0F9D1FF90191838083F301EFCFEC
:10123000F0931102E093100269CF4816590608F4A2
:101240002C017D01D3019ACFCB010E9454077C0170
:10125000009749F0AE01B8010E943609C8010E940A
:10126000F007870153CF10E000E050CFFB01DC0115
:1012700002C001900D9241505040D8F70895FB01F3
:10128000DC0101900D920020E1F7089510E0CDE51A
:10129000D0E004C0FE010E944E072196CE35D10752
:0612A000C9F7F894FFCF2E
:1012A6000100050000001202800000000000A203F9
:1012B600B9008B018A01524544204C4947485400E5
:1012C60053544F502021212100475245454E204C72
:1012D6004947485400474F20414845414400594535
:1012E6004C4C4F57204C4947485400534C4F5720BD
:1012F600444F574E003030303030303131003130CD
:10130600303131313131003030313030313031002F
:1013160030303030313130310031303031313030F1
:101326003100303130303130303100303130303012
:101336003030310030303031313131310030303001
:101346003030303031003030303031303031000024
:00000001FF
